:020000040800F2
:100000000020002089040008D5040008D504000859
:1000100000000000000000000000000000000000E0
:10002000000000000000000000000000D5040008EF
:100030000000000000000000D5040008D5040008FE
:10004000D5040008D5040008D5040008D50400082C
:10005000D5040008D5040008D5040008D50400081C
:10006000D5040008B9020008D5040008D50400082A
:10007000D5040008D5040008D5040008D5040008FC
:10008000D5040008D504000800000000D5040008CD
:10009000D5040008D5040008D5040008D5040008DC
:1000A000D5040008D5040008D5040008D5040008CC
:1000B000D504000800000000D5040008000000007E
:1000C0005FF808F180B582B000AF78600A1CFB1CB5
:1000D0001A70FB1C1B78002B06D0084B074A51698D
:1000E0007A680A435A6106E0044B044A5269796807
:1000F000C9430A405A61BD4602B080BD00100240AB
:1001000080B582B000AF78600A1CFB1C1A70FB1C23
:100110001B78002B06D0084B074A91697A680A437E
:100120009A6106E0044B044A92697968C9430A401F
:100130009A61BD4602B080BD0010024080B584B017
:1001400000AF786039600023FB607B68DB68FB6090
:10015000FB680F4A1340FB603B681A683B681B79D9
:100160005B031A433B689B681A433B68DB681A438E
:100170003B681B691A433B685B691343FA68134386
:10018000FB607B68FA68DA60BD4604B080BDC0469B
:1001900003D2FFFF80B582B000AF78600A1CFB1C61
:1001A0001A70FB1C1B78002B06D07B689B68012211
:1001B0001A437B689A6005E07B689B6802221A43B9
:1001C0007B689A60BD4602B080BDC04680B586B0EF
:1001D00000AFF860B9607A6000237B61FB689A6ABF
:1001E000BB681A43FB689A627B69072293437B6171
:1001F0007A697B6813437B61FB687A695A61BD4603
:1002000006B080BD80B582B000AF78607B689B6827
:1002100004221A437B689A60BD4602B080BDC04686
:1002200080B582B000AF78600A1CFB1C1A70FB1C02
:100230001B78002B06D07B68DB6801221A437B68A1
:10024000DA6006E07B68DB68012293431A1C7B6856
:10025000DA60BD4602B080BD80B584B000AF786082
:1002600039600F23FB1800221A700023BB603A6824
:1002700080235B04134005D07B689B680D4A1340C4
:10028000BB6002E07B681B68BB60BB683A681340D8
:1002900004D00F23FB1801221A7003E00F23FB1870
:1002A00000221A700F23FB181B78181CBD4604B0DF
:1002B00080BDC046FFFFFFFE80B500AF022000F00A
:1002C00081F9031E05D0022000F09CF9024B0122A7
:1002D0001A70BD4680BDC0460000002080B500AF4A
:1002E00080239B02181C0121FFF7ECFE80239B005A
:1002F000181C0121FFF704FF01200121FFF7E2FE96
:10030000584B07221A60574B03221A71554B002293
:100310009A71544B0022DA71524B00225A71902389
:10032000DA05504B101C191C00F02EFA4E4B00221F
:100330001A714D4B00221A614B4B00229A604A4BB6
:1003400000221A60484B00225A61484A464B101C52
:10035000191CFFF7F3FE454B181C0121FFF71AFF8C
:10036000424B181C0121FFF75BFF414B0322DA606F
:100370003F4B00229A603E4B00229A623D4A3C4B22
:100380005A603B4B8022D200DA61394B80225A619D
:10039000374B00221A62364B374A1A60344B8022A0
:1003A00052009A61324B00221A61314B00225A628C
:1003B000324A2F4B101C191C00F08EF82F4B181CC2
:1003C000012100F0C5F8022000F01CF92B4B181C8D
:1003D0000221012200F0DAF8294B09221A70284B79
:1003E00001225A70264B01229A70254B181C00F0EE
:1003F0005DFA1E4B181C01210722FFF7E7FE1B4B7D
:10040000181C02210722FFF7E1FE184B181C0421DB
:100410000722FFF7DBFEC046144B181C0121FFF733
:100420001BFF031EF8D0154B181C002100F090F89C
:10043000124A0F4B101C191C00F04EF80F4B181CE1
:10044000012100F085F8094B181CFFF7DBFEC046C0
:100450000C4B1B78DBB2002BFAD00A4B00221A702F
:10046000E1E7C0464C000020340000200024014099
:1004700004000020540000204024014008000240F5
:1004800030000020000000200C488546002103E0D9
:100490000B4B5B58435004310A480B4B42189A42AD
:1004A000F6D30A4A02E0002313600432084B9A4252
:1004B000F9D300F0B3F8FFF711FFFEE700200020AA
:1004C0005409000800000020000000200000002067
:1004D0005C000020FEE7000080B584B000AF7860CB
:1004E00039600023FB607B681B68FB60FB68174A70
:1004F0001340FB603B689A683B681B6A1A433B6881
:100500001B691A433B685B691A433B689B691A4342
:100510003B68DB691A433B685B6A1A433B689B6A2A
:100520001343FA681343FB607B68FA681A603B6800
:10053000DA687B685A603B681A687B689A603B6837
:100540005A687B68DA60BD4604B080BD0F80FFFF4B
:1005500080B582B000AF78600A1CFB1C1A70FB1CCF
:100560001B78002B06D07B681B6801221A437B682E
:100570001A6005E07B681B68034A1A407B681A60B2
:10058000BD4602B080BDC046FEFF000080B584B00D
:1005900000AFF860B960FB1D1A70FB1D1B78002BC3
:1005A00006D0FB681A68BB681A43FB681A6006E04D
:1005B000FB681B68BA68D2431A40FB681A60BD46E4
:1005C00004B080BD80B584B000AF78600F23FB1805
:1005D00000221A700A4B1B687A68134004D00F235C
:1005E000FB1801221A7003E00F23FB1800221A7077
:1005F0000F23FB181B78181CBD4604B080BDC046F5
:100600000000024080B582B000AF7860024B7A688B
:100610005A60BD4602B080BD0000024080B500AF08
:100620001B4B1B4A126801210A431A60184B184AD7
:10063000526818490A405A60154B154A1268164903
:100640000A401A60124B124A126814490A401A6092
:100650000F4B0F4A526812490A405A600C4B0C4A21
:10066000D26A0F218A43DA62094B094A126B0D499B
:100670000A401A63064B064A526B01218A435A63A9
:10068000034B00229A6000F00FF8BD4680BDC046C3
:10069000001002400CB8FFF8FFFFF6FEFFFFFBFF63
:1006A000FFFFC0FFACFEFFFF80B582B000AF0023AC
:1006B0007B6000233B60314B304A12688021490245
:1006C0000A431A602D4B1A6880239B0213403B603B
:1006D0007B6801337B603B68002B04D17A68A023E0
:1006E000DB019A42EED1254B1A6880239B0213400E
:1006F00002D001233B6001E000233B603B68012BFB
:1007000038D11F4B11221A601C4B1C4A52685A6088
:100710001A4B1A4A52685A60184B184A52681949BB
:100720000A405A60154B154A5268882149030A430A
:100730005A60124B114A1268802149040A431A6018
:10074000C0460E4B1A6880239B041340F9D00B4B14
:100750000A4A526803218A435A60084B074A526882
:1007600002210A435A60C046044B5B680C221340C6
:10077000082BF9D1BD4602B080BDC0460010024032
:1007800000200240FFFFC0FF80B586B000AF786058
:10079000396000237B6100233B610023FB60002361
:1007A0007B617CE07B6901229A40131C3B613B68C2
:1007B0001B683A691340FB60FA683B699A426BD147
:1007C0003B681B79012B03D03B681B79022B34D18A
:1007D0007B689B687A695200111C03228A40D243CD
:1007E0001A407B689A607B689A683B685B79191C41
:1007F0007B695B0099400B1C1A437B689A607B689D
:100800009B889BB27A6992B2111C01228A4092B2F3
:10081000D24392B213409AB27B689A807B689B88DD
:100820009AB23B689B79191C7B699BB299400B1C5F
:100830009BB213439AB27B689A807B681B687A6983
:100840005200111C03228A40D2431A407B681A606E
:100850007B681A683B681B79191C7B695B009940AF
:100860000B1C1A437B681A607B68DB687A6992B25A
:100870005200032191400A1CD2431A407B68DA607F
:100880007B68DA683B68DB79191C7B695B009940FF
:100890000B1C1A437B68DA607B6901337B617B69DF
:1008A0000F2B00D87EE7BD4606B080BD80B584B072
:1008B00000AF78600023FB607B689B78002B39D009
:1008C000234A7B681B789B08DBB2C0339B009B5894
:1008D000FB607B681B781A1C03231340DB00FF229C
:1008E0009A40131CDA43FB681340FB607B685B781B
:1008F0009B01FF221A407B681B78191C03230B40C5
:10090000DB009A40131CFA681343FB6010497B68B4
:100910001B789B08DBB2C0339B00FA685A500C4B23
:100920007A681278111C1F220A40012191400A1C8A
:100930001A600AE006497B681B781A1C1F231340C3
:1009400001229A40131C80228B50BD4604B080BD0A
:0409500000E100E0E2
:0400000508000000EF
:00000001FF
